{
  "abi": [
    {
      "inputs": [
        {
          "internalType": "uint256",
          "name": "_finalityDelay",
          "type": "uint256"
        }
      ],
      "stateMutability": "nonpayable",
      "type": "constructor"
    },
    {
      "anonymous": false,
      "inputs": [
        {
          "indexed": true,
          "internalType": "uint256",
          "name": "auctionId",
          "type": "uint256"
        },
        {
          "indexed": false,
          "internalType": "uint256",
          "name": "p",
          "type": "uint256"
        },
        {
          "indexed": false,
          "internalType": "uint256",
          "name": "q",
          "type": "uint256"
        },
        {
          "indexed": false,
          "internalType": "uint256",
          "name": "d",
          "type": "uint256"
        }
      ],
      "name": "AuctionClosed",
      "type": "event"
    },
    {
      "anonymous": false,
      "inputs": [
        {
          "indexed": true,
          "internalType": "uint256",
          "name": "auctionId",
          "type": "uint256"
        },
        {
          "indexed": true,
          "internalType": "address",
          "name": "auctioneer",
          "type": "address"
        },
        {
          "indexed": false,
          "internalType": "address",
          "name": "tokenAddress",
          "type": "address"
        },
        {
          "indexed": false,
          "internalType": "uint256",
          "name": "tokenId",
          "type": "uint256"
        },
        {
          "indexed": false,
          "internalType": "uint256",
          "name": "publicKey",
          "type": "uint256"
        },
        {
          "indexed": false,
          "internalType": "bytes",
          "name": "puzzle",
          "type": "bytes"
        }
      ],
      "name": "AuctionCreated",
      "type": "event"
    },
    {
      "anonymous": false,
      "inputs": [
        {
          "indexed": true,
          "internalType": "uint256",
          "name": "auctionId",
          "type": "uint256"
        },
        {
          "indexed": false,
          "internalType": "address",
          "name": "winner",
          "type": "address"
        },
        {
          "indexed": false,
          "internalType": "uint256",
          "name": "winningBid",
          "type": "uint256"
        }
      ],
      "name": "AuctionFinalized",
      "type": "event"
    },
    {
      "anonymous": false,
      "inputs": [
        {
          "indexed": true,
          "internalType": "uint256",
          "name": "auctionId",
          "type": "uint256"
        },
        {
          "indexed": true,
          "internalType": "address",
          "name": "bidder",
          "type": "address"
        },
        {
          "indexed": false,
          "internalType": "uint256",
          "name": "sealedBid",
          "type": "uint256"
        },
        {
          "indexed": false,
          "internalType": "uint256",
          "name": "ethSent",
          "type": "uint256"
        }
      ],
      "name": "BidCommitted",
      "type": "event"
    },
    {
      "anonymous": false,
      "inputs": [
        {
          "indexed": true,
          "internalType": "uint256",
          "name": "auctionId",
          "type": "uint256"
        },
        {
          "indexed": true,
          "internalType": "address",
          "name": "bidder",
          "type": "address"
        },
        {
          "indexed": false,
          "internalType": "uint256",
          "name": "bid",
          "type": "uint256"
        },
        {
          "indexed": false,
          "internalType": "uint256",
          "name": "obfuscation",
          "type": "uint256"
        },
        {
          "indexed": false,
          "internalType": "bool",
          "name": "isCurrentHighestBid",
          "type": "bool"
        },
        {
          "indexed": false,
          "internalType": "bool",
          "name": "isValidBid",
          "type": "bool"
        }
      ],
      "name": "BidRevealed",
      "type": "event"
    },
    {
      "anonymous": false,
      "inputs": [
        {
          "indexed": true,
          "internalType": "uint256",
          "name": "auctionId",
          "type": "uint256"
        },
        {
          "indexed": false,
          "internalType": "uint256",
          "name": "amount",
          "type": "uint256"
        }
      ],
      "name": "Refund",
      "type": "event"
    },
    {
      "inputs": [
        {
          "internalType": "uint256",
          "name": "",
          "type": "uint256"
        }
      ],
      "name": "auctions",
      "outputs": [
        {
          "internalType": "uint256",
          "name": "auctionId",
          "type": "uint256"
        },
        {
          "internalType": "address",
          "name": "auctioneer",
          "type": "address"
        },
        {
          "internalType": "address",
          "name": "tokenAddress",
          "type": "address"
        },
        {
          "internalType": "uint256",
          "name": "tokenId",
          "type": "uint256"
        },
        {
          "internalType": "uint256",
          "name": "publicKey",
          "type": "uint256"
        },
        {
          "components": [
            {
              "internalType": "bytes",
              "name": "input",
              "type": "bytes"
            },
            {
              "internalType": "uint256",
              "name": "p",
              "type": "uint256"
            },
            {
              "internalType": "uint256",
              "name": "q",
              "type": "uint256"
            },
            {
              "internalType": "uint256",
              "name": "d",
              "type": "uint256"
            }
          ],
          "internalType": "struct IExchange.Puzzle",
          "name": "puzzle",
          "type": "tuple"
        },
        {
          "internalType": "uint256",
          "name": "puzzleSolvedTimestamp",
          "type": "uint256"
        },
        {
          "internalType": "address",
          "name": "currentHighestBidder",
          "type": "address"
        },
        {
          "internalType": "enum IExchange.AuctionState",
          "name": "state",
          "type": "uint8"
        }
      ],
      "stateMutability": "view",
      "type": "function"
    },
    {
      "inputs": [
        {
          "internalType": "uint256",
          "name": "auctionId",
          "type": "uint256"
        }
      ],
      "name": "claimRefund",
      "outputs": [],
      "stateMutability": "nonpayable",
      "type": "function"
    },
    {
      "inputs": [
        {
          "internalType": "uint256",
          "name": "auctionId",
          "type": "uint256"
        },
        {
          "internalType": "uint256",
          "name": "p",
          "type": "uint256"
        },
        {
          "internalType": "uint256",
          "name": "q",
          "type": "uint256"
        },
        {
          "internalType": "uint256",
          "name": "d",
          "type": "uint256"
        }
      ],
      "name": "closeAuction",
      "outputs": [],
      "stateMutability": "nonpayable",
      "type": "function"
    },
    {
      "inputs": [
        {
          "internalType": "uint256",
          "name": "auctionId",
          "type": "uint256"
        },
        {
          "internalType": "uint256",
          "name": "sealedBid",
          "type": "uint256"
        }
      ],
      "name": "commitBid",
      "outputs": [],
      "stateMutability": "payable",
      "type": "function"
    },
    {
      "inputs": [
        {
          "internalType": "address",
          "name": "tokenAddress",
          "type": "address"
        },
        {
          "internalType": "uint256",
          "name": "tokenId",
          "type": "uint256"
        },
        {
          "internalType": "uint256",
          "name": "publicKey",
          "type": "uint256"
        },
        {
          "internalType": "bytes",
          "name": "puzzle",
          "type": "bytes"
        }
      ],
      "name": "createAuction",
      "outputs": [
        {
          "internalType": "uint256",
          "name": "",
          "type": "uint256"
        }
      ],
      "stateMutability": "nonpayable",
      "type": "function"
    },
    {
      "inputs": [],
      "name": "currentAuctionId",
      "outputs": [
        {
          "internalType": "uint256",
          "name": "",
          "type": "uint256"
        }
      ],
      "stateMutability": "view",
      "type": "function"
    },
    {
      "inputs": [
        {
          "internalType": "uint256",
          "name": "p",
          "type": "uint256"
        },
        {
          "internalType": "uint256",
          "name": "q",
          "type": "uint256"
        },
        {
          "internalType": "uint256",
          "name": "d",
          "type": "uint256"
        },
        {
          "internalType": "uint256",
          "name": "c",
          "type": "uint256"
        }
      ],
      "name": "decrypt",
      "outputs": [
        {
          "internalType": "uint256",
          "name": "",
          "type": "uint256"
        }
      ],
      "stateMutability": "view",
      "type": "function"
    },
    {
      "inputs": [],
      "name": "finalityDelay",
      "outputs": [
        {
          "internalType": "uint256",
          "name": "",
          "type": "uint256"
        }
      ],
      "stateMutability": "view",
      "type": "function"
    },
    {
      "inputs": [
        {
          "internalType": "uint256",
          "name": "auctionId",
          "type": "uint256"
        }
      ],
      "name": "finalizeAuction",
      "outputs": [],
      "stateMutability": "nonpayable",
      "type": "function"
    },
    {
      "inputs": [
        {
          "internalType": "address",
          "name": "",
          "type": "address"
        },
        {
          "internalType": "address",
          "name": "",
          "type": "address"
        },
        {
          "internalType": "uint256",
          "name": "",
          "type": "uint256"
        },
        {
          "internalType": "bytes",
          "name": "",
          "type": "bytes"
        }
      ],
      "name": "onERC721Received",
      "outputs": [
        {
          "internalType": "bytes4",
          "name": "",
          "type": "bytes4"
        }
      ],
      "stateMutability": "pure",
      "type": "function"
    },
    {
      "inputs": [
        {
          "internalType": "uint256",
          "name": "auctionId",
          "type": "uint256"
        },
        {
          "internalType": "address",
          "name": "bidder",
          "type": "address"
        }
      ],
      "name": "revealBid",
      "outputs": [
        {
          "internalType": "uint256",
          "name": "",
          "type": "uint256"
        }
      ],
      "stateMutability": "nonpayable",
      "type": "function"
    },
    {
      "inputs": [
        {
          "internalType": "uint256",
          "name": "",
          "type": "uint256"
        },
        {
          "internalType": "address",
          "name": "",
          "type": "address"
        }
      ],
      "name": "sealedBids",
      "outputs": [
        {
          "internalType": "uint256",
          "name": "value",
          "type": "uint256"
        },
        {
          "internalType": "uint256",
          "name": "ethSent",
          "type": "uint256"
        }
      ],
      "stateMutability": "view",
      "type": "function"
    },
    {
      "inputs": [
        {
          "internalType": "uint256",
          "name": "",
          "type": "uint256"
        },
        {
          "internalType": "address",
          "name": "",
          "type": "address"
        }
      ],
      "name": "settled",
      "outputs": [
        {
          "internalType": "bool",
          "name": "",
          "type": "bool"
        }
      ],
      "stateMutability": "view",
      "type": "function"
    },
    {
      "inputs": [],
      "name": "test",
      "outputs": [],
      "stateMutability": "view",
      "type": "function"
    },
    {
      "inputs": [],
      "name": "test2",
      "outputs": [],
      "stateMutability": "view",
      "type": "function"
    },
    {
      "inputs": [
        {
          "internalType": "uint256",
          "name": "",
          "type": "uint256"
        },
        {
          "internalType": "address",
          "name": "",
          "type": "address"
        }
      ],
      "name": "unsealedBids",
      "outputs": [
        {
          "internalType": "uint256",
          "name": "bid",
          "type": "uint256"
        },
        {
          "internalType": "uint256",
          "name": "obfuscation",
          "type": "uint256"
        }
      ],
      "stateMutability": "view",
      "type": "function"
    }
  ],
  "bytecode": {
    "object": "0x60a060405234801561001057600080fd5b50604051611c1e380380611c1e83398101604081905261002f91610037565b608052610050565b60006020828403121561004957600080fd5b5051919050565b608051611bac610072600039600081816102db01526110e00152611bac6000f3fe6080604052600436106100f35760003560e01c80635b7baf641161008a578063a65c6b2a11610059578063a65c6b2a14610332578063e44d774d1461037d578063e808386314610390578063f8a8fd6d146103b057600080fd5b80635b7baf64146102a75780635ea4d95f146102c957806366e41cb7146102fd57806377386a071461031257600080fd5b80634464b14a116100c65780634464b14a146101f357806356433a6814610232578063571a26a014610252578063572ea8d61461028757600080fd5b806303700a5e146100f85780630c0b86ca14610151578063150b7a02146101755780632b7e92a8146101d3575b600080fd5b34801561010457600080fd5b50610137610113366004611780565b60026020908152600092835260408084209091529082529020805460019091015482565b604080519283526020830191909152015b60405180910390f35b34801561015d57600080fd5b5061016760005481565b604051908152602001610148565b34801561018157600080fd5b506101ba6101903660046117f5565b7f150b7a023d4804d13e8c85fb27262cb750cf6ba9f9dd3bb30d90f482ceeb4b1f95945050505050565b6040516001600160e01b03199091168152602001610148565b3480156101df57600080fd5b506101676101ee366004611864565b6103c5565b3480156101ff57600080fd5b5061013761020e366004611780565b60036020908152600092835260408084209091529082529020805460019091015482565b34801561023e57600080fd5b5061016761024d366004611896565b610417565b34801561025e57600080fd5b5061027261026d3660046118e1565b6106a5565b60405161014899989796959493929190611932565b34801561029357600080fd5b506101676102a2366004611780565b6107c6565b3480156102b357600080fd5b506102c76102c23660046118e1565b610bbb565b005b3480156102d557600080fd5b506101677f000000000000000000000000000000000000000000000000000000000000000081565b34801561030957600080fd5b506102c7610d8d565b34801561031e57600080fd5b506102c761032d366004611864565b610ebd565b34801561033e57600080fd5b5061036d61034d366004611780565b600460209081526000928352604080842090915290825290205460ff1681565b6040519015158152602001610148565b6102c761038b366004611a13565b610f46565b34801561039c57600080fd5b506102c76103ab3660046118e1565b6110c8565b3480156103bc57600080fd5b506102c7611475565b6000806103e66103d6600188611a4b565b6103e1600188611a4b565b6115b4565b90506103f68462010001836115db565b600061040c8486610407898b611a62565b611630565b979650505050505050565b604051632142170760e11b8152336004820152306024820152604481018590526000906001600160a01b038716906342842e0e90606401600060405180830381600087803b15801561046857600080fd5b505af115801561047c573d6000803e3d6000fd5b50505050600060016000808282546104949190611a81565b9250508190559050604051806101200160405280828152602001336001600160a01b03168152602001886001600160a01b03168152602001878152602001868152602001604051806080016040528087878080601f01602080910402602001604051908101604052809392919081815260200183838082843760009201829052509385525050506020808301829052604080840183905260609384018390529385528401819052918301829052919091015260008054815260016020818152604092839020845181558482015192810180546001600160a01b039485166001600160a01b0319918216179091559385015160028201805491909416941693909317909155606083015160038301556080830151600483015560a083015180518051919260058501926105c992849201906116cb565b5060208201516001820155604082015160028083019190915560609092015160039091015560c0830151600983015560e0830151600a830180546001600160a01b039092166001600160a01b03198316811782556101008601519391926001600160a81b0319161790600160a01b908490811115610649576106496118fa565b0217905550905050336001600160a01b0316817fadf8bebed1a3b6a4f3f8eadc55315cafafb4513ca781522baa692e671c07603c8989898989604051610693959493929190611a99565b60405180910390a39695505050505050565b60016020819052600091825260409182902080549181015460028201546003830154600484015486516080810190975260058501805496976001600160a01b0395861697949095169592949193829082906106ff90611ae5565b80601f016020809104026020016040519081016040528092919081815260200182805461072b90611ae5565b80156107785780601f1061074d57610100808354040283529160200191610778565b820191906000526020600020905b81548152906001019060200180831161075b57829003601f168201915b505050918352505060018201546020820152600282015460408201526003909101546060909101526009820154600a909201549091906001600160a01b03811690600160a01b900460ff1689565b600060016000848152600160205260409020600a0154600160a01b900460ff1660028111156107f7576107f76118fa565b1461086f5760405162461bcd60e51b815260206004820152603d60248201527f426964732063616e206f6e6c792062652072657665616c6564207768656e207460448201527f68652061756374696f6e20697320696e20434c4f53454420737461746500000060648201526084015b60405180910390fd5b60008381526001602052604080822081516080810190925260050180548290829061089990611ae5565b80601f01602080910402602001604051908101604052809291908181526020018280546108c590611ae5565b80156109125780601f106108e757610100808354040283529160200191610912565b820191906000526020600020905b8154815290600101906020018083116108f557829003601f168201915b505050505081526020016001820154815260200160028201548152602001600382015481525050905061094481611670565b6109a55760405162461bcd60e51b815260206004820152602c60248201527f43616e6e6f742072657665616c207365616c6564206269642e2050757a7a6c6560448201526b103737ba1039b7b63b32b21760a11b6064820152608401610866565b60008481526002602090815260408083206001600160a01b03871684528252918290208251808401909352805480845260019091015491830191909152158015906109f35750602081015115155b610a3f5760405162461bcd60e51b815260206004820152601e60248201527f4e6f207365616c6564206269642065786973747320666f7220757365722e00006044820152606401610866565b6000610a5d83602001518460400151856060015185600001516103c5565b6020830151909150811115600081610a76576000610a86565b828460200151610a869190611a4b565b604080518082018252858152602080820184815260008d8152600383528481206001600160a01b038e1682529092529281209151825591516001909101559091508215610b58576000898152600160205260409020600a01546001600160a01b031680610af65760019150610b25565b60008a81526003602090815260408083206001600160a01b0385168452909152902054851115610b2557600191505b8115610b565760008a8152600160205260409020600a0180546001600160a01b0319166001600160a01b038b161790555b505b604080518581526020810184905282151581830152841515606082015290516001600160a01b038a16918b917f523f60a8016d8cd6e87a0454a2f3ca91a87a296ecbd3ac7ec900162228fb01259181900360800190a35091979650505050505050565b60026000828152600160205260409020600a0154600160a01b900460ff166002811115610bea57610bea6118fa565b14610c515760405162461bcd60e51b815260206004820152603160248201527f41756374696f6e202c7573742062652066696e616c697a6564206265666f72656044820152701031b630b4b6b4b733903932b33ab7321760791b6064820152608401610866565b600081815260046020908152604080832033845290915290205460ff1615610cbb5760405162461bcd60e51b815260206004820181905260248201527f54686973206163636f756e742068617320616c726561647920736574746c65646044820152606401610866565b60008181526002602090815260408083203380855290835281842060019081015486865260048552838620838752909452828520805460ff19169091179055905191929183908381818185875af1925050503d8060008114610d39576040519150601f19603f3d011682016040523d82523d6000602084013e610d3e565b606091505b5050905080610d885760405162461bcd60e51b815260206004820152601660248201527511985a5b1959081d1bc818db185a5b481c99599d5b9960521b6044820152606401610866565b505050565b60405163056fd25560e31b81526ff1d8820818846893356fc7b1bf30aab7600482018190526fbbb509a5f48fdba8bc6842d3775ed183602483018190527f06aea752cf6cbdec517f51f196c18c761d0b0ecbac7e4f211da4f4f7b797f87d604484018190527fade5780aa292081cd710752a874300af10d449dfb16b81bfdca46734699509786064850181905292939192916000903090632b7e92a890608401602060405180830381865afa158015610e4a573d6000803e3d6000fd5b505050506040513d601f19601f82011682018060405250810190610e6e9190611b1f565b90508069010062a2ead63ef22db514610eb65760405162461bcd60e51b815260206004820152600a60248201526957726f6e67206d73672160b01b6044820152606401610866565b5050505050565b600084815260016020908152604091829020600681018690556007810185905560088101849055600a8101805460ff60a01b1916600160a01b179055426009909101558151858152908101849052808201839052905185917fa9381cb9c4083ce4428b6093345dab1f0f897a843407240727abfda0bef49f0e919081900360600190a250505050565b600080838152600160205260409020600a0154600160a01b900460ff166002811115610f7457610f746118fa565b14610fb75760405162461bcd60e51b815260206004820152601360248201527220bab1ba34b7b71034b9903737ba1037b832b760691b6044820152606401610866565b806000036110075760405162461bcd60e51b815260206004820152601b60248201527f5365616c656420626964206d757374206265206e6f6e2d7a65726f00000000006044820152606401610866565b346000036110475760405162461bcd60e51b815260206004820152600d60248201526c09aeae6e840e6cadcc8408aa89609b1b6044820152606401610866565b60408051808201825282815234602080830182815260008781526002835285812033808352935285902093518455516001909301929092559151909184917fd01dab2f3b4b97d6761668bf43ff193fc6f4a45dc005415b1f65048f9bc6f87e916110bc91869190918252602082015260400190565b60405180910390a35050565b600081815260016020526040902060090154611105907f000000000000000000000000000000000000000000000000000000000000000090611a81565b42116111535760405162461bcd60e51b815260206004820181905260248201527f41756374696f6e2063616e6e6f742062652066696e616c697a6564207965742e6044820152606401610866565b60016000828152600160205260409020600a0154600160a01b900460ff166002811115611182576111826118fa565b146111e35760405162461bcd60e51b815260206004820152602b60248201527f41756374696f6e206973206e6f742079657420636c6f7365642e2043616e6e6f60448201526a3a103334b730b634bd329760a91b6064820152608401610866565b6000818152600160208181526040808420600a81018054600160a11b60ff60a01b1982161790915590840154600384528286206001600160a01b0391821680885294529190942080549301549193169190826112e3576000858152600160205260409081902060028101546003909101549151632142170760e11b81523060048201526001600160a01b03878116602483015260448201939093529116906342842e0e90606401600060405180830381600087803b1580156112a457600080fd5b505af11580156112b8573d6000803e3d6000fd5b5050506000868152600160205260409020600a01805460ff60a01b1916600160a11b1790555061142a565b6000858152600160205260409081902060028101546003909101549151632142170760e11b81523060048201526001600160a01b03868116602483015260448201939093529116906342842e0e90606401600060405180830381600087803b15801561134e57600080fd5b505af1158015611362573d6000803e3d6000fd5b50505060008681526004602090815260408083206001600160a01b0388168085529252808320805460ff1916600117905551909250839181818185875af1925050503d80600081146113d0576040519150601f19603f3d011682016040523d82523d6000602084013e6113d5565b606091505b50506040516001600160a01b03861691508390600081818185875af1925050503d8060008114611421576040519150601f19603f3d011682016040523d82523d6000602084013e611426565b606091505b5050505b604080516001600160a01b03851681526020810184905286917f4d9113a1377d665eaa1f9168a9c9080f2e488cb820b10149de3d6d2e0f2780c7910160405180910390a25050505050565b60405163056fd25560e31b81526fefaa4198779cfbb9ada8e6f4a3db2b73600482018190526fac8ed9a1e01aabb645cb3e982db678df602483018190527f43aad9e21a1f3b5cb26b631abf62693bdc63ad231ab56e1b92d77c8b6d932923604484018190527f7690f3f5f18934c72e035f50cd91f120dab38e13a0cf99deace283861650b25e6064850181905292939192916000903090632b7e92a890608401602060405180830381865afa158015611532573d6000803e3d6000fd5b505050506040513d601f19601f820116820180604052508101906115569190611b1f565b9050807f0ada73fe6090d535b0686a1418ef90a98ae8cf2a25ea1bd9ac6807038e0cacba14610eb65760405162461bcd60e51b815260206004820152600a60248201526957726f6e67206d73672160b01b6044820152606401610866565b60006115c0838361169f565b6115ca9083611b4e565b6115d49084611a62565b9392505050565b80806115e9576115e9611b38565b828409600114610d885760405162461bcd60e51b81526020600482015260126024820152714261642052534120536563726574204b657960701b6044820152606401610866565b600060405160208152602080820152602060408201528460608201528360808201528260a082015260208160c08360056107d05a03fa5051949350505050565b6000816020015160001415801561168a5750604082015115155b80156116995750606082015115155b92915050565b60008282825b81156116c15750806116b78184611b62565b91508092506116a5565b5090949350505050565b8280546116d790611ae5565b90600052602060002090601f0160209004810192826116f9576000855561173f565b82601f1061171257805160ff191683800117855561173f565b8280016001018555821561173f579182015b8281111561173f578251825591602001919060010190611724565b5061174b92915061174f565b5090565b5b8082111561174b5760008155600101611750565b80356001600160a01b038116811461177b57600080fd5b919050565b6000806040838503121561179357600080fd5b823591506117a360208401611764565b90509250929050565b60008083601f8401126117be57600080fd5b50813567ffffffffffffffff8111156117d657600080fd5b6020830191508360208285010111156117ee57600080fd5b9250929050565b60008060008060006080868803121561180d57600080fd5b61181686611764565b945061182460208701611764565b935060408601359250606086013567ffffffffffffffff81111561184757600080fd5b611853888289016117ac565b969995985093965092949392505050565b6000806000806080858703121561187a57600080fd5b5050823594602084013594506040840135936060013592509050565b6000806000806000608086880312156118ae57600080fd5b6118b786611764565b94506020860135935060408601359250606086013567ffffffffffffffff81111561184757600080fd5b6000602082840312156118f357600080fd5b5035919050565b634e487b7160e01b600052602160045260246000fd5b6003811061192e57634e487b7160e01b600052602160045260246000fd5b9052565b60006101208b8352602060018060a01b03808d1682860152808c166040860152508960608501528860808501528160a0850152875160808386015280519250826101a086015260005b83811015611998578181018301518682016101c00152820161197b565b838111156119ab5760006101c085880101525b50508701516101408401526040870151610160840152606087015161018084015260c08301869052601f01601f191682016101c00190506119f760e08301856001600160a01b03169052565b611a05610100830184611910565b9a9950505050505050505050565b60008060408385031215611a2657600080fd5b50508035926020909101359150565b634e487b7160e01b600052601160045260246000fd5b600082821015611a5d57611a5d611a35565b500390565b6000816000190483118215151615611a7c57611a7c611a35565b500290565b60008219821115611a9457611a94611a35565b500190565b60018060a01b038616815284602082015283604082015260806060820152816080820152818360a0830137600081830160a090810191909152601f909201601f19160101949350505050565b600181811c90821680611af957607f821691505b602082108103611b1957634e487b7160e01b600052602260045260246000fd5b50919050565b600060208284031215611b3157600080fd5b5051919050565b634e487b7160e01b600052601260045260246000fd5b600082611b5d57611b5d611b38565b500490565b600082611b7157611b71611b38565b50069056fea2646970667358221220b7b31006b7ac6c07406cea60d33fded99a5106dcae12b198ba0da7a86b86d9a764736f6c634300080d0033",
    "linkReferences": {}
  },
  "methodIdentifiers": {
    "auctions(uint256)": "571a26a0",
    "claimRefund(uint256)": "5b7baf64",
    "closeAuction(uint256,uint256,uint256,uint256)": "77386a07",
    "commitBid(uint256,uint256)": "e44d774d",
    "createAuction(address,uint256,uint256,bytes)": "56433a68",
    "currentAuctionId()": "0c0b86ca",
    "decrypt(uint256,uint256,uint256,uint256)": "2b7e92a8",
    "finalityDelay()": "5ea4d95f",
    "finalizeAuction(uint256)": "e8083863",
    "onERC721Received(address,address,uint256,bytes)": "150b7a02",
    "revealBid(uint256,address)": "572ea8d6",
    "sealedBids(uint256,address)": "03700a5e",
    "settled(uint256,address)": "a65c6b2a",
    "test()": "f8a8fd6d",
    "test2()": "66e41cb7",
    "unsealedBids(uint256,address)": "4464b14a"
  },
  "id": 3
}